{
  "_format": "hh-sol-artifact-1",
  "contractName": "MEOWS",
  "sourceName": "contracts/MeowsToken.sol",
  "abi": [
    {
      "inputs": [],
      "stateMutability": "nonpayable",
      "type": "constructor"
    },
    {
      "anonymous": false,
      "inputs": [
        {
          "indexed": false,
          "internalType": "uint256",
          "name": "amount",
          "type": "uint256"
        }
      ],
      "name": "Bought",
      "type": "event"
    },
    {
      "anonymous": false,
      "inputs": [
        {
          "indexed": false,
          "internalType": "uint256",
          "name": "amount",
          "type": "uint256"
        }
      ],
      "name": "Sold",
      "type": "event"
    },
    {
      "inputs": [
        {
          "internalType": "uint256",
          "name": "amount",
          "type": "uint256"
        }
      ],
      "name": "approve",
      "outputs": [
        {
          "internalType": "bool",
          "name": "",
          "type": "bool"
        }
      ],
      "stateMutability": "nonpayable",
      "type": "function"
    },
    {
      "inputs": [],
      "name": "buy",
      "outputs": [],
      "stateMutability": "payable",
      "type": "function"
    },
    {
      "inputs": [],
      "name": "getAddress",
      "outputs": [
        {
          "internalType": "address",
          "name": "",
          "type": "address"
        }
      ],
      "stateMutability": "view",
      "type": "function"
    },
    {
      "inputs": [],
      "name": "getAllowance",
      "outputs": [
        {
          "internalType": "uint256",
          "name": "",
          "type": "uint256"
        }
      ],
      "stateMutability": "view",
      "type": "function"
    },
    {
      "inputs": [],
      "name": "getDexBalance",
      "outputs": [
        {
          "internalType": "uint256",
          "name": "",
          "type": "uint256"
        }
      ],
      "stateMutability": "view",
      "type": "function"
    },
    {
      "inputs": [],
      "name": "getOwnerBalance",
      "outputs": [
        {
          "internalType": "uint256",
          "name": "",
          "type": "uint256"
        }
      ],
      "stateMutability": "view",
      "type": "function"
    },
    {
      "inputs": [],
      "name": "getSenderAddress",
      "outputs": [
        {
          "internalType": "address",
          "name": "",
          "type": "address"
        }
      ],
      "stateMutability": "view",
      "type": "function"
    },
    {
      "inputs": [],
      "name": "getTokenAddress",
      "outputs": [
        {
          "internalType": "address",
          "name": "",
          "type": "address"
        }
      ],
      "stateMutability": "view",
      "type": "function"
    },
    {
      "inputs": [],
      "name": "getTotalSupply",
      "outputs": [
        {
          "internalType": "uint256",
          "name": "",
          "type": "uint256"
        }
      ],
      "stateMutability": "view",
      "type": "function"
    },
    {
      "inputs": [],
      "name": "mining",
      "outputs": [],
      "stateMutability": "payable",
      "type": "function"
    },
    {
      "inputs": [
        {
          "internalType": "uint256",
          "name": "amount",
          "type": "uint256"
        }
      ],
      "name": "sell",
      "outputs": [],
      "stateMutability": "payable",
      "type": "function"
    },
    {
      "inputs": [],
      "name": "token",
      "outputs": [
        {
          "internalType": "contract MERC20",
          "name": "",
          "type": "address"
        }
      ],
      "stateMutability": "view",
      "type": "function"
    }
  ],
  "bytecode": "0x608060405234801561001057600080fd5b5060405161001d9061007e565b604051809103906000f080158015610039573d6000803e3d6000fd5b506000806101000a81548173ffffffffffffffffffffffffffffffffffffffff021916908373ffffffffffffffffffffffffffffffffffffffff16021790555061008b565b610ecd806113e383390190565b6113498061009a6000396000f3fe6080604052600436106100a75760003560e01c8063973e9b8b11610064578063973e9b8b1461018d578063a6f2ae3a146101b8578063b759f954146101c2578063c4e41b22146101ff578063e4849b321461022a578063fc0c546a14610246576100a7565b806310fe9ae8146100ac57806338cc4831146100d757806342948e1814610102578063430f48011461012d578063590791f214610158578063662fac3914610183575b600080fd5b3480156100b857600080fd5b506100c1610271565b6040516100ce9190610f87565b60405180910390f35b3480156100e357600080fd5b506100ec610317565b6040516100f99190610f87565b60405180910390f35b34801561010e57600080fd5b5061011761031f565b6040516101249190610f87565b60405180910390f35b34801561013957600080fd5b50610142610327565b60405161014f91906110e1565b60405180910390f35b34801561016457600080fd5b5061016d6103d8565b60405161017a91906110e1565b60405180910390f35b61018b610489565b005b34801561019957600080fd5b506101a261057c565b6040516101af91906110e1565b60405180910390f35b6101c0610633565b005b3480156101ce57600080fd5b506101e960048036038101906101e49190610d2d565b610877565b6040516101f6919061102b565b60405180910390f35b34801561020b57600080fd5b50610214610934565b60405161022191906110e1565b60405180910390f35b610244600480360381019061023f9190610d2d565b6109da565b005b34801561025257600080fd5b5061025b610c63565b6040516102689190611046565b60405180910390f35b60008060009054906101000a900473ffffffffffffffffffffffffffffffffffffffff1673ffffffffffffffffffffffffffffffffffffffff166338cc48316040518163ffffffff1660e01b815260040160206040518083038186803b1580156102da57600080fd5b505afa1580156102ee573d6000803e3d6000fd5b505050506040513d601f19601f820116820180604052508101906103129190610cdb565b905090565b600030905090565b600033905090565b60008060009054906101000a900473ffffffffffffffffffffffffffffffffffffffff1673ffffffffffffffffffffffffffffffffffffffff166370a08231306040518263ffffffff1660e01b81526004016103839190610f87565b60206040518083038186803b15801561039b57600080fd5b505afa1580156103af573d6000803e3d6000fd5b505050506040513d601f19601f820116820180604052508101906103d39190610d56565b905090565b60008060009054906101000a900473ffffffffffffffffffffffffffffffffffffffff1673ffffffffffffffffffffffffffffffffffffffff166370a08231336040518263ffffffff1660e01b81526004016104349190610f87565b60206040518083038186803b15801561044c57600080fd5b505afa158015610460573d6000803e3d6000fd5b505050506040513d601f19601f820116820180604052508101906104849190610d56565b905090565b60006014905060008142336040516020016104a5929190610f5b565b6040516020818303038152906040528051906020012060001c6104c89190611232565b905060008054906101000a900473ffffffffffffffffffffffffffffffffffffffff1673ffffffffffffffffffffffffffffffffffffffff1663a9059cbb33836040518363ffffffff1660e01b8152600401610525929190611002565b602060405180830381600087803b15801561053f57600080fd5b505af1158015610553573d6000803e3d6000fd5b505050506040513d601f19601f820116820180604052508101906105779190610d04565b505050565b60008060008054906101000a900473ffffffffffffffffffffffffffffffffffffffff1673ffffffffffffffffffffffffffffffffffffffff1663dd62ed3e33306040518363ffffffff1660e01b81526004016105da929190610fa2565b60206040518083038186803b1580156105f257600080fd5b505afa158015610606573d6000803e3d6000fd5b505050506040513d601f19601f8201168201806040525081019061062a9190610d56565b90508091505090565b6000670de0b6b3a7640000620186a03461064d919061113e565b610657919061110d565b905060008060009054906101000a900473ffffffffffffffffffffffffffffffffffffffff1673ffffffffffffffffffffffffffffffffffffffff166370a08231306040518263ffffffff1660e01b81526004016106b59190610f87565b60206040518083038186803b1580156106cd57600080fd5b505afa1580156106e1573d6000803e3d6000fd5b505050506040513d601f19601f820116820180604052508101906107059190610d56565b9050600182101561074b576040517f08c379a0000000000000000000000000000000000000000000000000000000008152600401610742906110c1565b60405180910390fd5b8082111561078e576040517f08c379a000000000000000000000000000000000000000000000000000000000815260040161078590611081565b60405180910390fd5b60008054906101000a900473ffffffffffffffffffffffffffffffffffffffff1673ffffffffffffffffffffffffffffffffffffffff1663a9059cbb33846040518363ffffffff1660e01b81526004016107e9929190611002565b602060405180830381600087803b15801561080357600080fd5b505af1158015610817573d6000803e3d6000fd5b505050506040513d601f19601f8201168201806040525081019061083b9190610d04565b507f4e08ba899977cf7d4c2964bce71c6b9a7ef76ee5166a4c1249a1e08016e33ef18260405161086b91906110e1565b60405180910390a15050565b60008060008054906101000a900473ffffffffffffffffffffffffffffffffffffffff1673ffffffffffffffffffffffffffffffffffffffff1663e1f21c673330866040518463ffffffff1660e01b81526004016108d793929190610fcb565b602060405180830381600087803b1580156108f157600080fd5b505af1158015610905573d6000803e3d6000fd5b505050506040513d601f19601f820116820180604052508101906109299190610d04565b905080915050919050565b60008060009054906101000a900473ffffffffffffffffffffffffffffffffffffffff1673ffffffffffffffffffffffffffffffffffffffff166318160ddd6040518163ffffffff1660e01b815260040160206040518083038186803b15801561099d57600080fd5b505afa1580156109b1573d6000803e3d6000fd5b505050506040513d601f19601f820116820180604052508101906109d59190610d56565b905090565b60008111610a1d576040517f08c379a0000000000000000000000000000000000000000000000000000000008152600401610a1490611061565b60405180910390fd5b60008060009054906101000a900473ffffffffffffffffffffffffffffffffffffffff1673ffffffffffffffffffffffffffffffffffffffff1663dd62ed3e33306040518363ffffffff1660e01b8152600401610a7b929190610fa2565b60206040518083038186803b158015610a9357600080fd5b505afa158015610aa7573d6000803e3d6000fd5b505050506040513d601f19601f82011682018060405250810190610acb9190610d56565b905081811015610b10576040517f08c379a0000000000000000000000000000000000000000000000000000000008152600401610b07906110a1565b60405180910390fd5b60008054906101000a900473ffffffffffffffffffffffffffffffffffffffff1673ffffffffffffffffffffffffffffffffffffffff16633112ae5b3330856040518463ffffffff1660e01b8152600401610b6d93929190610fcb565b602060405180830381600087803b158015610b8757600080fd5b505af1158015610b9b573d6000803e3d6000fd5b505050506040513d601f19601f82011682018060405250810190610bbf9190610d04565b503373ffffffffffffffffffffffffffffffffffffffff166108fc620186a0670de0b6b3a764000085610bf2919061113e565b610bfc919061110d565b9081150290604051600060405180830381858888f19350505050158015610c27573d6000803e3d6000fd5b507f92f64ca637d023f354075a4be751b169c1a8a9ccb6d33cdd0cb352054399572782604051610c5791906110e1565b60405180910390a15050565b60008054906101000a900473ffffffffffffffffffffffffffffffffffffffff1681565b600081519050610c96816112ce565b92915050565b600081519050610cab816112e5565b92915050565b600081359050610cc0816112fc565b92915050565b600081519050610cd5816112fc565b92915050565b600060208284031215610ced57600080fd5b6000610cfb84828501610c87565b91505092915050565b600060208284031215610d1657600080fd5b6000610d2484828501610c9c565b91505092915050565b600060208284031215610d3f57600080fd5b6000610d4d84828501610cb1565b91505092915050565b600060208284031215610d6857600080fd5b6000610d7684828501610cc6565b91505092915050565b610d8881611198565b82525050565b610d9f610d9a82611198565b611204565b82525050565b610dae816111aa565b82525050565b610dbd816111e0565b82525050565b6000610dd06022836110fc565b91507f596f75206e65656420746f2073656c6c206174206c656173742031204d454f5760008301527f532e0000000000000000000000000000000000000000000000000000000000006020830152604082019050919050565b6000610e366021836110fc565b91507f4e6f7420656e6f75676820746f6b656e7320696e20746865207265736572766560008301527f2e000000000000000000000000000000000000000000000000000000000000006020830152604082019050919050565b6000610e9c601a836110fc565b91507f436865636b2074686520746f6b656e20616c6c6f77616e63652e0000000000006000830152602082019050919050565b6000610edc6021836110fc565b91507f596f75206e65656420746f20627579206174206c656173742031204d454f575360008301527f2e000000000000000000000000000000000000000000000000000000000000006020830152604082019050919050565b610f3e816111d6565b82525050565b610f55610f50826111d6565b611228565b82525050565b6000610f678285610f44565b602082019150610f778284610d8e565b6014820191508190509392505050565b6000602082019050610f9c6000830184610d7f565b92915050565b6000604082019050610fb76000830185610d7f565b610fc46020830184610d7f565b9392505050565b6000606082019050610fe06000830186610d7f565b610fed6020830185610d7f565b610ffa6040830184610f35565b949350505050565b60006040820190506110176000830185610d7f565b6110246020830184610f35565b9392505050565b60006020820190506110406000830184610da5565b92915050565b600060208201905061105b6000830184610db4565b92915050565b6000602082019050818103600083015261107a81610dc3565b9050919050565b6000602082019050818103600083015261109a81610e29565b9050919050565b600060208201905081810360008301526110ba81610e8f565b9050919050565b600060208201905081810360008301526110da81610ecf565b9050919050565b60006020820190506110f66000830184610f35565b92915050565b600082825260208201905092915050565b6000611118826111d6565b9150611123836111d6565b92508261113357611132611292565b5b828204905092915050565b6000611149826111d6565b9150611154836111d6565b9250817fffffffffffffffffffffffffffffffffffffffffffffffffffffffffffffffff048311821515161561118d5761118c611263565b5b828202905092915050565b60006111a3826111b6565b9050919050565b60008115159050919050565b600073ffffffffffffffffffffffffffffffffffffffff82169050919050565b6000819050919050565b60006111eb826111f2565b9050919050565b60006111fd826111b6565b9050919050565b600061120f82611216565b9050919050565b6000611221826112c1565b9050919050565b6000819050919050565b600061123d826111d6565b9150611248836111d6565b92508261125857611257611292565b5b828206905092915050565b7f4e487b7100000000000000000000000000000000000000000000000000000000600052601160045260246000fd5b7f4e487b7100000000000000000000000000000000000000000000000000000000600052601260045260246000fd5b60008160601b9050919050565b6112d781611198565b81146112e257600080fd5b50565b6112ee816111aa565b81146112f957600080fd5b50565b611305816111d6565b811461131057600080fd5b5056fea2646970667358221220b0502fc5c82d7c1a7a7a46734600bb53213c6abc013f67d5418b3b119363997a64736f6c6343000800003360806040526402540be40060025534801561001957600080fd5b506002546000803373ffffffffffffffffffffffffffffffffffffffff1673ffffffffffffffffffffffffffffffffffffffff16815260200190815260200160002081905550610e5f8061006e6000396000f3fe608060405234801561001057600080fd5b506004361061009e5760003560e01c806370a082311161006657806370a082311461014b57806395d89b411461017b578063a9059cbb14610199578063dd62ed3e146101c9578063e1f21c67146101f95761009e565b806306fdde03146100a357806318160ddd146100c15780633112ae5b146100df578063313ce5671461010f57806338cc48311461012d575b600080fd5b6100ab610229565b6040516100b89190610c35565b60405180910390f35b6100c9610262565b6040516100d69190610c57565b60405180910390f35b6100f960048036038101906100f49190610aff565b61026c565b6040516101069190610c1a565b60405180910390f35b6101176105e7565b6040516101249190610c72565b60405180910390f35b6101356105ec565b6040516101429190610bff565b60405180910390f35b61016560048036038101906101609190610a9a565b6105f4565b6040516101729190610c57565b60405180910390f35b61018361063c565b6040516101909190610c35565b60405180910390f35b6101b360048036038101906101ae9190610b4e565b610675565b6040516101c09190610c1a565b60405180910390f35b6101e360048036038101906101de9190610ac3565b610857565b6040516101f09190610c57565b60405180910390f35b610213600480360381019061020e9190610aff565b6108de565b6040516102209190610c1a565b60405180910390f35b6040518060400160405280600b81526020017f4d656f777320546f6b656e00000000000000000000000000000000000000000081525081565b6000600254905090565b60008060008573ffffffffffffffffffffffffffffffffffffffff1673ffffffffffffffffffffffffffffffffffffffff168152602001908152602001600020548211156102b957600080fd5b600160008573ffffffffffffffffffffffffffffffffffffffff1673ffffffffffffffffffffffffffffffffffffffff16815260200190815260200160002060003373ffffffffffffffffffffffffffffffffffffffff1673ffffffffffffffffffffffffffffffffffffffff1681526020019081526020016000205482111561034257600080fd5b610393826000808773ffffffffffffffffffffffffffffffffffffffff1673ffffffffffffffffffffffffffffffffffffffff168152602001908152602001600020546109d190919063ffffffff16565b6000808673ffffffffffffffffffffffffffffffffffffffff1673ffffffffffffffffffffffffffffffffffffffff1681526020019081526020016000208190555061046482600160008773ffffffffffffffffffffffffffffffffffffffff1673ffffffffffffffffffffffffffffffffffffffff16815260200190815260200160002060008673ffffffffffffffffffffffffffffffffffffffff1673ffffffffffffffffffffffffffffffffffffffff168152602001908152602001600020546109d190919063ffffffff16565b600160008673ffffffffffffffffffffffffffffffffffffffff1673ffffffffffffffffffffffffffffffffffffffff16815260200190815260200160002060008573ffffffffffffffffffffffffffffffffffffffff1673ffffffffffffffffffffffffffffffffffffffff16815260200190815260200160002081905550610535826000808673ffffffffffffffffffffffffffffffffffffffff1673ffffffffffffffffffffffffffffffffffffffff16815260200190815260200160002054610a1e90919063ffffffff16565b6000808573ffffffffffffffffffffffffffffffffffffffff1673ffffffffffffffffffffffffffffffffffffffff168152602001908152602001600020819055508273ffffffffffffffffffffffffffffffffffffffff168473ffffffffffffffffffffffffffffffffffffffff167fddf252ad1be2c89b69c2b068fc378daa952ba7f163c4a11628f55a4df523b3ef846040516105d49190610c57565b60405180910390a3600190509392505050565b600081565b600030905090565b60008060008373ffffffffffffffffffffffffffffffffffffffff1673ffffffffffffffffffffffffffffffffffffffff168152602001908152602001600020549050919050565b6040518060400160405280600581526020017f4d454f575300000000000000000000000000000000000000000000000000000081525081565b60008060003373ffffffffffffffffffffffffffffffffffffffff1673ffffffffffffffffffffffffffffffffffffffff168152602001908152602001600020548211156106c257600080fd5b610713826000803373ffffffffffffffffffffffffffffffffffffffff1673ffffffffffffffffffffffffffffffffffffffff168152602001908152602001600020546109d190919063ffffffff16565b6000803373ffffffffffffffffffffffffffffffffffffffff1673ffffffffffffffffffffffffffffffffffffffff168152602001908152602001600020819055506107a6826000808673ffffffffffffffffffffffffffffffffffffffff1673ffffffffffffffffffffffffffffffffffffffff16815260200190815260200160002054610a1e90919063ffffffff16565b6000808573ffffffffffffffffffffffffffffffffffffffff1673ffffffffffffffffffffffffffffffffffffffff168152602001908152602001600020819055508273ffffffffffffffffffffffffffffffffffffffff163373ffffffffffffffffffffffffffffffffffffffff167fddf252ad1be2c89b69c2b068fc378daa952ba7f163c4a11628f55a4df523b3ef846040516108459190610c57565b60405180910390a36001905092915050565b6000600160008473ffffffffffffffffffffffffffffffffffffffff1673ffffffffffffffffffffffffffffffffffffffff16815260200190815260200160002060008373ffffffffffffffffffffffffffffffffffffffff1673ffffffffffffffffffffffffffffffffffffffff16815260200190815260200160002054905092915050565b600081600160008673ffffffffffffffffffffffffffffffffffffffff1673ffffffffffffffffffffffffffffffffffffffff16815260200190815260200160002060008573ffffffffffffffffffffffffffffffffffffffff1673ffffffffffffffffffffffffffffffffffffffff168152602001908152602001600020819055508273ffffffffffffffffffffffffffffffffffffffff168473ffffffffffffffffffffffffffffffffffffffff167f8c5be1e5ebec7d5bd14f71427d1e84f3dd0314c0f7b2291e5b200ac8c7c3b925846040516109be9190610c57565b60405180910390a3600190509392505050565b600082821115610a0a577f4e487b7100000000000000000000000000000000000000000000000000000000600052600160045260246000fd5b8183610a169190610cff565b905092915050565b6000808284610a2d9190610ca9565b905083811015610a66577f4e487b7100000000000000000000000000000000000000000000000000000000600052600160045260246000fd5b8091505092915050565b600081359050610a7f81610dfb565b92915050565b600081359050610a9481610e12565b92915050565b600060208284031215610aac57600080fd5b6000610aba84828501610a70565b91505092915050565b60008060408385031215610ad657600080fd5b6000610ae485828601610a70565b9250506020610af585828601610a70565b9150509250929050565b600080600060608486031215610b1457600080fd5b6000610b2286828701610a70565b9350506020610b3386828701610a70565b9250506040610b4486828701610a85565b9150509250925092565b60008060408385031215610b6157600080fd5b6000610b6f85828601610a70565b9250506020610b8085828601610a85565b9150509250929050565b610b9381610d33565b82525050565b610ba281610d45565b82525050565b6000610bb382610c8d565b610bbd8185610c98565b9350610bcd818560208601610d88565b610bd681610dea565b840191505092915050565b610bea81610d71565b82525050565b610bf981610d7b565b82525050565b6000602082019050610c146000830184610b8a565b92915050565b6000602082019050610c2f6000830184610b99565b92915050565b60006020820190508181036000830152610c4f8184610ba8565b905092915050565b6000602082019050610c6c6000830184610be1565b92915050565b6000602082019050610c876000830184610bf0565b92915050565b600081519050919050565b600082825260208201905092915050565b6000610cb482610d71565b9150610cbf83610d71565b9250827fffffffffffffffffffffffffffffffffffffffffffffffffffffffffffffffff03821115610cf457610cf3610dbb565b5b828201905092915050565b6000610d0a82610d71565b9150610d1583610d71565b925082821015610d2857610d27610dbb565b5b828203905092915050565b6000610d3e82610d51565b9050919050565b60008115159050919050565b600073ffffffffffffffffffffffffffffffffffffffff82169050919050565b6000819050919050565b600060ff82169050919050565b60005b83811015610da6578082015181840152602081019050610d8b565b83811115610db5576000848401525b50505050565b7f4e487b7100000000000000000000000000000000000000000000000000000000600052601160045260246000fd5b6000601f19601f8301169050919050565b610e0481610d33565b8114610e0f57600080fd5b50565b610e1b81610d71565b8114610e2657600080fd5b5056fea2646970667358221220bd47691433b931f72b476a04a37c9703c308c7e7c58a4de1cd3edcff4d34264364736f6c63430008000033",
  "linkReferences": {},
  "deployedLinkReferences": {}
}